:020000040800F2
:10000000700600200101000803030008FB0200083D
:10001000FF020008DF010008EB0A000800000000F2
:10002000000000000000000000000000A104000823
:10003000E30100080000000089030008B50500087E
:100040001B0100081B0100081B0100081B01000820
:100050001B0100081B0100081B0100081B01000810
:100060001B0100081B0100081B0100081B01000800
:100070001B0100081B0100081B0100081B010008F0
:100080001B0100081B0100081B0100081B010008E0
:100090001B0100081B0100081B0100081B010008D0
:1000A0001B0100081B0100081B0100081B010008C0
:1000B0001B0100081B010008000000001B010008D4
:1000C0001B01000800000000000000001B010008E8
:1000D0000000000055060008950700080000000019
:1000E0001B0100081B0100081B010008DFF80CD0F1
:1000F00000F038F80048004739100008700600206A
:100100000648804706480047FEE7FEE7FEE7FEE7B1
:10011000FEE7FEE7FEE7FEE7FEE7FEE7F50500087F
:10012000ED000008D2B201E000F8012B491EFBD21D
:1001300070470022F6E710B513460A4604461946F2
:10014000FFF7F0FF204610BD30B5044600200346FF
:1001500000E05B1C934203D2E05CCD5C401BF8D016
:1001600030BD0000064C074D06E0E06840F001039A
:1001700094E8070098471034AC42F6D3FFF7BAFF73
:10018000701E0008901E000870B58C1810F8015BF6
:1001900015F0070301D110F8013B2A1106D110F820
:1001A000012B03E010F8016B01F8016B5B1EF9D124
:1001B0002B0705D40023521E0DD401F8013BFAE7AA
:1001C00010F8013BCB1A921C03E013F8015B01F815
:1001D000015B521EF9D5A142D8D3002070BD00BFEB
:1001E000FEE770472DE9F041024600250026002079
:1001F00000230024002791F803C00CF00F0591F8AC
:1002000003C00CF0100CBCF1000F03D091F802C039
:100210004CEA050591F800C0BCF1000F31D014681C
:1002200000202BE04FF0010C0CFA00F3B1F800C0F5
:100230000CEA03069E4220D183004FF00F0C0CFA0B
:1002400003F7BC4305FA03FC4CEA040491F803C02D
:10025000BCF1280F06D14FF0010C0CFA00FCC2F8DB
:1002600014C00AE091F803C0BCF1480F05D14FF06B
:10027000010C0CFA00FCC2F810C0401C0828D1D3B5
:100280001460B1F800C0BCF1FF0F34DD54680020E9
:100290002EE000F1080C4FF0010808FA0CF3B1F859
:1002A00000C00CEA03069E4221D183004FF00F0CE0
:1002B0000CFA03F7BC4305FA03FC4CEA040491F87A
:1002C00003C0BCF1280F05D100F1080C08FA0CF8A6
:1002D000C2F8148091F803C0BCF1480F07D100F1B7
:1002E000080C4FF0010808FA0CF8C2F81080401C06
:1002F0000828CED35460BDE8F08100BFFEE700BF00
:10030000FEE7704770B5002100230F22C47804B3C4
:10031000154C246804F4E064C4F5E064210AC1F1DA
:100320000403CA40447804FA03F18478144021435A
:1003300009010E4C0678A155047804F01F0501242C
:10034000AC4005786D11AD0005F1E025C5F8004120
:1003500009E0047804F01F050124AC40044D067840
:10036000761145F8264070BD0CED00E000E400E099
:1003700080E100E002490143024A11607047000039
:100380000000FA050CED00E07047000029B1064AB4
:10039000D2690243044BDA6104E0034AD269824322
:1003A000014BDA61704700000010024029B1064A93
:1003B00092690243044B9A6104E0034A92698243C2
:1003C000014B9A61704700000010024030B50021D7
:1003D0000022002400232D4D6D6805F00C0121B191
:1003E000042905D0082923D105E0294D056022E024
:1003F000274D05601FE0254D6D6805F47012234DF3
:100400006D6805F48034022505EB92421CB9214D3C
:10041000554305600BE01D4D6D6805F400351DB1B9
:100420001C4D5543056002E0194D5543056002E03F
:10043000174D056000BF00BF144D6D6805F0F00159
:100440000909154D6B5C0568DD4045600F4D6D6811
:1004500005F4E061090A104D6B5C4568DD4085607C
:100460000A4D6D6805F46051C90A0B4D6B5C456817
:10047000DD40C560054D6D6805F44041890B074DB1
:100480006B5CC568B5FBF3F5056130BD001002403B
:1004900000127A0000093D00710100208101002056
:1004A000704710B500F002F810BD00000CB5002038
:1004B000019000903348006840F480303149086072
:1004C00000BF3048006800F4003000900198401CE4
:1004D0000190009818B90198B0F5A06FF1D12948A2
:1004E000006800F4003010B10120009001E000200D
:1004F00000900098012843D12348006840F0100084
:10050000214908600846006820F00300086008469A
:10051000006840F0020008601A48406819494860C5
:100520000846406848600846406840F4806048607B
:100530000846406820F47C1048600846406840F453
:10054000E81048600846006840F08070086000BF0E
:100550000C48006800F000700028F9D00948406895
:1005600020F00300074948600846406840F0020058
:10057000486000BF0348406800F00C000828F9D12B
:100580000CBD00000010024000200240042808D1E9
:100590004FF0E021096941F004014FF0E0221161C0
:1005A00007E04FF0E021096921F004014FF0E0225B
:1005B000116170477047000010B504466FF00400E9
:1005C000FFF7E4FFE11704EB5171C1F3C701074ADC
:1005D00011701046007800EB4001C1EBC0104FF6DF
:1005E000FF7101EAC0000249088010BD86010020A9
:1005F0008801002010B51348006840F0010011493F
:10060000086008464068104908400E49486008469E
:1006100000680E4908400B4908600846006820F44D
:10062000802008600846406820F4FE0048604FF4CF
:100630001F008860FFF735FF4FF000600449086035
:1006400010BD0000001002400000FFF8FFFFF6FEA2
:1006500008ED00E010B540F225511D4800F081F989
:1006600010B31B4800F038FAC4B21A48008800F4EE
:100670000040C8B91748008800F4804060B10A2CD7
:1006800003D000201349088020E01248008840F47D
:1006900000401049088019E00D2C06D10D48008853
:1006A00040F480400B49088010E00A480088C0F3FD
:1006B0000D0009490C5407480088401C0549088072
:1006C00008460088C72801DD0020088010BD000012
:1006D000003801408A010020A401002010B586B036
:1006E000044601210420FFF761FE01218803FFF782
:1006F0005DFE01210846FFF759FE4FF40070ADF88A
:10070000140003208DF8160018208DF8170005A995
:100710001E48FFF767FD4FF48060ADF81400042019
:100720008DF8170005A91948FFF75CFD019400201A
:10073000ADF80800ADF80A00ADF80C00ADF81000F7
:100740000C20ADF80E0001A9114800F059F9012163
:100750000F4800F0EDF840210D4800F0D1F80122DB
:1007600040F225510A4800F026F925208DF80000B6
:1007700001208DF8010003208DF8020001208DF882
:1007800003006846FFF7BEFD06B010BD000801403B
:10079000003801401CB525A103C9CDE9000140F294
:1007A0002551244800F0DDF8012834D1214800F01B
:1007B00093F9C4B22048007840B9012C25D101201A
:1007C0001D49087000201D4908701EE01A48007875
:1007D00001280FD1194801780078401C174A107081
:1007E000174844541046007810280EDB02201249A6
:1007F00008700AE010480078022806D12CB90020C1
:100800000D49087001200F49087040F22551094830
:1008100000F07FF800BF08226946064800F067F93B
:1008200040F6B83000F00EFA1CBD000001020000D6
:10083000001DB803004400408D0100208E010020FF
:10084000940100208C01002010B586B004460121DF
:100850000420FFF7ABFD01214804FFF797FD0420BA
:10086000ADF8140003208DF8160018208DF817003D
:1008700005A92148FFF7B6FC0820ADF814000420B4
:100880008DF8170005A91C48FFF7ACFC0194002067
:10089000ADF80800ADF80A00ADF80C00ADF8100096
:1008A0000C20ADF80E0001A9144800F0A9F80121B0
:1008B000124800F03DF84021104800F021F80122D4
:1008C00040F225510D4800F076F8012240F2244113
:1008D0000A4800F070F826208DF8000001208DF8FD
:1008E000010000208DF8020001208DF80300684609
:1008F000FFF708FD06B010BD0008014000440040AD
:1009000001F40072B2F5007F00D100BFCA4302803B
:10091000704710B50022002340F66A14A14200D1AE
:1009200000BF0A1201249440A3B2DC43048010BD2E
:1009300021B1828942F40052828104E082894DF61D
:10094000FF731A408281704702460020B1F5007F94
:1009500000D100BF13880B400BB1012000E0002044
:10096000704770B50246002400230025002040F6A1
:100970006A16B14200D100BFC1F3421501F01F0356
:10098000012606FA03F3012D02D19689334006E0D1
:10099000022D02D1168A334001E0968A33400C12B0
:1009A000012606FA04F41688344013B10CB1012074
:1009B00000E0002070BDF0B50346002400260025AD
:1009C000002040F66A17B94200D100BF1846C1F3B3
:1009D000421401F01F06012707FA06F5012C01D188
:1009E0000C3004E0022C01D1103000E014301AB1B8
:1009F00007682F43076002E00768AF430760F0BD58
:100A00002DE9F04786B005460E460024A24600BFF9
:100A1000A1460027B08900B100BF2F462C8A4CF6B2
:100A2000FF700440F08804432C82AC894EF6F3102A
:100A30000440B08831890843718908430443AC817C
:100A4000AC8A4FF6FF400440B0890443AC8201A851
:100A5000FFF7BCFC1F48874202D1DDF810A001E07F
:100A6000DDF80CA0A88900F4004040B10AEBCA00F0
:100A700000EB0A1031684900B0FBF1F807E00AEB1F
:100A8000CA0000EB0A1031688900B0FBF1F864205D
:100A9000B8FBF0F004012009642101FB1089A8894A
:100AA00000F4004040B1322000EBC900B0FBF1F08F
:100AB00000F00700044308E0322000EB0910642135
:100AC000B0FBF1F000F00F0004432C8106B0BDE84C
:100AD000F08700000038014001468888C0F3080014
:100AE0007047C1F308028280704700BFFEE72DE91E
:100AF000F04107460D461646002405E0295D3846BC
:100B000000F006F8601C84B2B442F7DBBDE8F08167
:100B100070B504460D4629462046FFF7E2FF00BFA8
:100B200080212046FFF710FF0028F9D070BD00009B
:100B30000FB4054B10B503A9044A029800F017F84A
:100B400010BC5DF814FB0000151000089001002097
:100B500002E008C8121F08C1002AFAD17047704786
:100B6000002001E001C1121F002AFBD170472DE9CE
:100B7000F84F9946924688460546002706E0252804
:100B80000AD051464A4690476D1C7F1C28780028A1
:100B9000F5D13846BDE8F88F002315F8011F184637
:100BA0002E2915D115F8011F04232A290DD06FF025
:100BB0002F022978A1F13004092C09D800EB80001C
:100BC00002EB400008446D1CF3E758F8040B6D1C61
:100BD0002A78002ADDD0632A07D0732A0FD0104666
:100BE00051464A4690477F1C2AE018F8042B8DF89E
:100BF000002000218DF801106E46012103E058F815
:100C0000046B4FF0FF315A074FF0000401D409E0A4
:100C1000641C84420BDA8C42FADB325D002AF7D185
:100C200005E0641C8C42FCDB305D0028F9D12744D0
:100C300004E016F8010B51464A469047641EF8D26C
:100C40006D1CA3E70146114A12884A434FF0E02386
:100C50005A6100229A611A46126942F001021A6131
:100C600000BF4FF0E022106900F001021AB100F459
:100C70008032002AF5D04FF0E022126922F0010202
:100C80004FF0E0231A6100229A617047880100202A
:100C900010B50448FFF74CFFC8210348FFF749FA95
:100CA00010BD000068150008A401002010B504481C
:100CB000FFF73EFFC8210348FFF73BFA10BD0000D5
:100CC00090140008A401002010B50448FFF730FF7D
:100CD000C8210348FFF72DFA10BD0000D415000805
:100CE000A401002010B50448FFF722FFC8210348E3
:100CF000FFF71FFA10BD000018170008A40100201C
:100D000010B50448FFF714FFC8210348FFF711FA94
:100D100010BD00005C180008A401002010B50448B4
:100D2000FFF706FFC8210348FFF703FA10BD0000D4
:100D300034190008A401002010B50448FFF7F8FE9C
:100D4000C8210348FFF7F5F910BD00000C1A000890
:100D5000A401002010B50448FFF7EAFEC8210348AB
:100D6000FFF7E7F910BD0000E41A0008A401002015
:100D700010B50448FFF7DCFEC8210348FFF7D9F996
:100D800010BD0000BC1B0008A401002010B50448E1
:100D9000FFF7CEFEC8210348FFF7CBF910BD0000D6
:100DA000941C0008A401002010B50448FFF7C0FE01
:100DB000C8210348FFF7BDF910BD00006C1D0008F5
:100DC000A401002010B50448FFF7B2FEC821034873
:100DD000FFF7AFF910BD0000AC160008A401002019
:100DE00010B50448FFF7A4FEC8210348FFF7A1F996
:100DF00010BD0000FC140008A401002010B5044838
:100E0000FFF796FEC8210348FFF793F910BD0000D5
:100E100040160008A401002010B50448FFF788FE22
:100E2000C8210348FFF785F910BD000084170008AA
:100E3000A401002010B50448FFF77AFEC82103483A
:100E4000FFF777F910BD0000F0170008A40100209B
:100E500010B50448FFF76CFEC8210348FFF769F995
:100E600010BD0000C8180008A401002010B50448F7
:100E7000FFF75EFEC8210348FFF75BF910BD0000D5
:100E8000A0190008A401002010B50448FFF750FE87
:100E9000C8210348FFF74DF910BD0000781A00087B
:100EA000A401002010B50448FFF742FEC821034802
:100EB000FFF73FF910BD0000501B0008A4010020FF
:100EC00010B50448FFF734FEC8210348FFF731F995
:100ED00010BD0000281C0008A401002010B5044823
:100EE000FFF726FEC8210348FFF723F910BD0000D5
:100EF000001D0008A401002010B523A0FFF718FE74
:100F00004FF4FA60FFF79EFE21A0FFF711FE4FF4A9
:100F1000FA60FFF797FE21A0FFF70AFE4FF4FA6090
:100F2000FFF790FE21A0FFF703FE4FF47A70FFF762
:100F300089FE22A0FFF7FCFD4FF4FA60FFF782FE66
:100F400028A0FFF7F5FD4FF47A70FFF77BFE2D48E0
:100F5000FFF7EEFD4FF47A70FFF774FE2A48FFF7B3
:100F6000E7FD4FF47A70FFF76DFE2848FFF7E0FDCC
:100F70004FF47A70FFF766FE2548FFF7D9FD4FF46E
:100F80007A70FFF75FFE10BD41540D0A00000000AB
:100F900041542B5253540D0A0000000041542B526F
:100FA0004553544F52450D0A0000000041542B4355
:100FB000574D4F44453D330D0A00000041542B432B
:100FC0004950534E54504346473D312C382C226EE5
:100FD00074706C2E616C6979756E2E636F6D220D65
:100FE0000A00000041542B43574A41503D2274658A
:100FF0007374222C223132333435363738220D0ABD
:1010000000000000A413000824140008281E000893
:10101000D81D000870B504460D46E1B20548FFF73B
:1010200060FD00BF80210348FFF78EFC0028F9D047
:10103000204670BD003801404820FFF7BDFA4FF44C
:101040008060FFF797F94FF4E130FFF747FB4FF46B
:101050001650FFF7F9FBFFF74FFF6BE1B64800783A
:1010600040B10822B549B648FFF741FD41F288304A
:10107000FFF7E8FD0822B349B348FFF765F8B34925
:1010800008600846006828B9FFF702FE1021AE4844
:10109000FFF74FF80822AE49AB48FFF755F8AB49C8
:1010A00008600846006828B9FFF78CFE1021A648A2
:1010B000FFF73FF80822A749A348FFF745F8A349DF
:1010C00008600846006828B9FFF7B4FE10219E4862
:1010D000FFF72FF80722A0499B48FFF735F89B49F7
:1010E00008600846006828B9FFF7B2FE102196484C
:1010F000FFF71FF8072299499348FFF725F893490E
:1011000008600846006828B9FFF7B0FE10218E4835
:10111000FFF70FF8072292498B48FFF715F88B4924
:1011200008600846006828B9FFF7AEFE102186481F
:10113000FEF7FFFF07228B498348FFF705F8834935
:1011400008600846006828B9FFF7ACFE10217E4809
:10115000FEF7EFFF072284497B48FEF7F5FF7B4946
:1011600008600846006828B9FFF7AAFE10217648F3
:10117000FEF7DFFF07227D497348FEF7E5FF73495D
:1011800008600846006828B9FFF7A8FE10216E48DD
:10119000FEF7CFFF072276496B48FEF7D5FF6B4974
:1011A00008600846006828B9FFF780FD10216648EE
:1011B000FEF7BFFF07226F496348FEF7C5FF63498B
:1011C00008600846006828B9FFF77EFD10215E48D8
:1011D000FEF7AFFF072268495B48FEF7B5FF5B49A2
:1011E00008600846006828B9FFF77CFD10215648C2
:1011F000FEF79FFF072261495348FEF7A5FF5349B9
:1012000008600846006828B9FFF77AFD10214E48AB
:10121000FEF78FFF07225A494B48FEF795FF4B49CF
:1012200008600846006828B9FFF778FD1021464895
:10123000FEF77FFF072253494348FEF785FF4349E6
:1012400008600846006828B9FFF776FD10213E487F
:10125000FEF76FFF07224C493B48FEF775FF3B49FD
:1012600008600846006828B9FFF774FD1021364869
:10127000FEF75FFF072245493348FEF765FF334914
:1012800008600846006828B9FFF772FD10212E4853
:10129000FEF74FFF07223E492B48FEF755FF2B492B
:1012A00008600846006828B9FFF770FD102126483D
:1012B000FEF73FFF072237492348FEF745FF234942
:1012C00008600846006828B9FFF76EFD10211E4827
:1012D000FEF72FFF072230491B48FEF735FF1B4959
:1012E00008600846006828B9FFF77AFD1021164803
:1012F000FEF71FFF072229491348FEF725FF134970
:1013000008600846006828B9FFF778FD10210E48EC
:10131000FEF70FFF072222490B48FEF715FF0B4986
:1013200008600846006828B9FFF776FD10210648D6
:10133000FEF7FFFE92E600000800002009000020F2
:10134000004400401100002094010020040000200F
:101350002100002031000020410000205100002029
:101360006100002071000020810000209100002019
:10137000A1000020B1000020C1000020D100002009
:10138000E1000020F10000200101002011010020F7
:1013900021010020310100204101002051010020E5
:1013A0006101002041542B4D515454555345524333
:1013B00046473D302C312C224E554C4C222C224D90
:1013C00061696E436F6E74726F6C266B3135337A60
:1013D0007579414D4836222C2261323161633433B4
:1013E00061313334663538383936356232323364F8
:1013F0006662333665643037323038313664613294
:101400003036613661343162666333623330393786
:10141000343562636631373433222C302C302C2241
:10142000220D0A0041542B4D515454434C49454E12
:101430005449443D302C226B3135337A7579414D16
:1014400048362E4D61696E436F6E74726F6C7C739B
:1014500065637572656D6F64653D325C2C73696799
:101460006E6D6574686F643D686D61637368613249
:1014700035365C2C74696D657374616D703D313700
:1014800032303335313233363631387C220D0A0072
:1014900041542B4D5154545055423D302C222F7302
:1014A00079732F6B3135337A7579414D48362F4D2D
:1014B00061696E436F6E74726F6C2F7468696E67CA
:1014C0002F6576656E742F70726F70657274792FE8
:1014D000706F7374222C227B5C22706172616D7359
:1014E0005C223A7B5C226E756D5C223A3131307D34
:1014F0007D222C312C300D0A0000000041542B4D70
:101500005154545055423D302C222F7379732F6B18
:101510003135337A7579414D48362F4D61696E43C7
:101520006F6E74726F6C2F7468696E672F65766565
:101530006E742F70726F70657274792F706F737420
:10154000222C227B5C22706172616D735C223A7B7B
:101550005C226E756D5C223A3132307D7D222C31F9
:101560002C300D0A0000000041542B4D51545450B2
:1015700055423D302C222F7379732F6B3135337ADE
:101580007579414D48362F4D61696E436F6E7472A7
:101590006F6C2F7468696E672F6576656E742F7037
:1015A000726F70657274792F706F7374222C227B46
:1015B0005C22706172616D735C223A7B5C226E7595
:1015C0006D5C223A3130317D7D222C312C300D0A78
:1015D0000000000041542B4D5154545055423D30B1
:1015E0002C222F7379732F6B3135337A7579414DF6
:1015F00048362F4D61696E436F6E74726F6C2F7435
:1016000068696E672F6576656E742F70726F70658E
:101610007274792F706F7374222C227B5C2270613C
:1016200072616D735C223A7B5C226E756D5C223A4E
:101630003131317D7D222C312C300D0A000000002B
:1016400041542B4D5154545055423D302C222F7350
:1016500079732F6B3135337A7579414D48362F4D7B
:1016600061696E436F6E74726F6C2F7468696E6718
:101670002F6576656E742F70726F70657274792F36
:10168000706F7374222C227B5C22706172616D73A7
:101690005C223A7B5C226E756D5C223A3132317D80
:1016A0007D222C312C300D0A0000000041542B4DBE
:1016B0005154545055423D302C222F7379732F6B67
:1016C0003135337A7579414D48362F4D61696E4316
:1016D0006F6E74726F6C2F7468696E672F657665B4
:1016E0006E742F70726F70657274792F706F73746F
:1016F000222C227B5C22706172616D735C223A7BCA
:101700005C226E756D5C223A3130327D7D222C3147
:101710002C300D0A0000000041542B4D5154545000
:1017200055423D302C222F7379732F6B3135337A2C
:101730007579414D48362F4D61696E436F6E7472F5
:101740006F6C2F7468696E672F6576656E742F7085
:10175000726F70657274792F706F7374222C227B94
:101760005C22706172616D735C223A7B5C226E75E3
:101770006D5C223A3131327D7D222C312C300D0AC4
:101780000000000041542B4D5154545055423D30FF
:101790002C222F7379732F6B3135337A7579414D44
:1017A00048362F4D61696E436F6E74726F6C2F7483
:1017B00068696E672F6576656E742F70726F7065DD
:1017C0007274792F706F7374222C227B5C2270618B
:1017D00072616D735C223A7B5C226E756D5C223A9D
:1017E0003132327D7D222C312C300D0A0000000078
:1017F00041542B4D5154545055423D302C222F739F
:1018000079732F6B3135337A7579414D48362F4DC9
:1018100061696E436F6E74726F6C2F7468696E6766
:101820002F6576656E742F70726F70657274792F84
:10183000706F7374222C227B5C22706172616D73F5
:101840005C223A7B5C226E756D5C223A3130337DCE
:101850007D222C312C300D0A0000000041542B4D0C
:101860005154545055423D302C222F7379732F6BB5
:101870003135337A7579414D48362F4D61696E4364
:101880006F6E74726F6C2F7468696E672F65766502
:101890006E742F70726F70657274792F706F7374BD
:1018A000222C227B5C22706172616D735C223A7B18
:1018B0005C226E756D5C223A3131337D7D222C3194
:1018C0002C300D0A0000000041542B4D515454504F
:1018D00055423D302C222F7379732F6B3135337A7B
:1018E0007579414D48362F4D61696E436F6E747244
:1018F0006F6C2F7468696E672F6576656E742F70D4
:10190000726F70657274792F706F7374222C227BE2
:101910005C22706172616D735C223A7B5C226E7531
:101920006D5C223A3130347D7D222C312C300D0A11
:101930000000000041542B4D5154545055423D304D
:101940002C222F7379732F6B3135337A7579414D92
:1019500048362F4D61696E436F6E74726F6C2F74D1
:1019600068696E672F6576656E742F70726F70652B
:101970007274792F706F7374222C227B5C227061D9
:1019800072616D735C223A7B5C226E756D5C223AEB
:101990003131347D7D222C312C300D0A00000000C5
:1019A00041542B4D5154545055423D302C222F73ED
:1019B00079732F6B3135337A7579414D48362F4D18
:1019C00061696E436F6E74726F6C2F7468696E67B5
:1019D0002F6576656E742F70726F70657274792FD3
:1019E000706F7374222C227B5C22706172616D7344
:1019F0005C223A7B5C226E756D5C223A3130357D1B
:101A00007D222C312C300D0A0000000041542B4D5A
:101A10005154545055423D302C222F7379732F6B03
:101A20003135337A7579414D48362F4D61696E43B2
:101A30006F6E74726F6C2F7468696E672F65766550
:101A40006E742F70726F70657274792F706F73740B
:101A5000222C227B5C22706172616D735C223A7B66
:101A60005C226E756D5C223A3131357D7D222C31E0
:101A70002C300D0A0000000041542B4D515454509D
:101A800055423D302C222F7379732F6B3135337AC9
:101A90007579414D48362F4D61696E436F6E747292
:101AA0006F6C2F7468696E672F6576656E742F7022
:101AB000726F70657274792F706F7374222C227B31
:101AC0005C22706172616D735C223A7B5C226E7580
:101AD0006D5C223A3130367D7D222C312C300D0A5E
:101AE0000000000041542B4D5154545055423D309C
:101AF0002C222F7379732F6B3135337A7579414DE1
:101B000048362F4D61696E436F6E74726F6C2F741F
:101B100068696E672F6576656E742F70726F706579
:101B20007274792F706F7374222C227B5C22706127
:101B300072616D735C223A7B5C226E756D5C223A39
:101B40003131367D7D222C312C300D0A0000000011
:101B500041542B4D5154545055423D302C222F733B
:101B600079732F6B3135337A7579414D48362F4D66
:101B700061696E436F6E74726F6C2F7468696E6703
:101B80002F6576656E742F70726F70657274792F21
:101B9000706F7374222C227B5C22706172616D7392
:101BA0005C223A7B5C226E756D5C223A3130377D67
:101BB0007D222C312C300D0A0000000041542B4DA9
:101BC0005154545055423D302C222F7379732F6B52
:101BD0003135337A7579414D48362F4D61696E4301
:101BE0006F6E74726F6C2F7468696E672F6576659F
:101BF0006E742F70726F70657274792F706F73745A
:101C0000222C227B5C22706172616D735C223A7BB4
:101C10005C226E756D5C223A3131377D7D222C312C
:101C20002C300D0A0000000041542B4D51545450EB
:101C300055423D302C222F7379732F6B3135337A17
:101C40007579414D48362F4D61696E436F6E7472E0
:101C50006F6C2F7468696E672F6576656E742F7070
:101C6000726F70657274792F706F7374222C227B7F
:101C70005C22706172616D735C223A7B5C226E75CE
:101C80006D5C223A3130387D7D222C312C300D0AAA
:101C90000000000041542B4D5154545055423D30EA
:101CA0002C222F7379732F6B3135337A7579414D2F
:101CB00048362F4D61696E436F6E74726F6C2F746E
:101CC00068696E672F6576656E742F70726F7065C8
:101CD0007274792F706F7374222C227B5C22706176
:101CE00072616D735C223A7B5C226E756D5C223A88
:101CF0003131387D7D222C312C300D0A000000005E
:101D000041542B4D5154545055423D302C222F7389
:101D100079732F6B3135337A7579414D48362F4DB4
:101D200061696E436F6E74726F6C2F7468696E6751
:101D30002F6576656E742F70726F70657274792F6F
:101D4000706F7374222C227B5C22706172616D73E0
:101D50005C223A7B5C226E756D5C223A3130397DB3
:101D60007D222C312C300D0A0000000041542B4DF7
:101D70005154545055423D302C222F7379732F6BA0
:101D80003135337A7579414D48362F4D61696E434F
:101D90006F6E74726F6C2F7468696E672F657665ED
:101DA0006E742F70726F70657274792F706F7374A8
:101DB000222C227B5C22706172616D735C223A7B03
:101DC0005C226E756D5C223A3131397D7D222C3179
:101DD0002C300D0A0000000041542B4D5154545337
:101DE00055423D302C222F7379732F6B3135337A66
:101DF0007579414D48362F4D61696E436F6E74722F
:101E00006F6C2F7468696E672F6576656E742F70BE
:101E1000726F70657274792F706F73745F72657012
:101E20006C79222C310D0A0041542B4D51545443EE
:101E30004F4E4E3D302C22696F742D30367A303043
:101E400069327A767A65743769702E6D7174742E82
:101E5000696F746875622E616C6979756E63732E33
:101E6000636F6D222C313838332C310D0A0000009D
:101E7000901E000800000020940100008801000866
:101E80002C1F000894010020DC040000600B0008F7
:101E9000813401010230081DB803010204016BFA0C
:101EA0001E192B02041A8BFA5A102A04108AD21017
:101EB00032088BF9821032108BFF221032209AF0F8
:101EC0001032409AEE1032809AD210111981AAAACB
:101ED000101981AA5A1019819BBA231019812A7AE4
:101EE00065691019819BFA2710191C9BFA28101993
:101EF000819BFA361019819BFA0A101981ABFA728C
:101F00001012029AFAE0211204AAF9901981BAFC7F
:101F1000101210BAF61012206AE21049142B0304B2
:0C1F200004180806070809020406BFD1D7
:04000005080000ED02
:00000001FF
