:020000040800F2
:1000000090060020010100089905000891050008EC
:1000100095050008750400088B0D0008000000001D
:100020000000000000000000000000003907000888
:100030007904000800000000210600084D080008AF
:100040001B0100081B0100081B0100081B01000820
:100050001B0100081B0100081B0100081B01000810
:100060001B0100081B0100081B0100081B01000800
:100070001B0100081B0100081B0100081B010008F0
:100080001B0100081B0100081B0100081B010008E0
:100090001B0100081B0100081B0100081B010008D0
:1000A0001B0100081B0100081B0100081B010008C0
:1000B0001B0100081B010008000000001B010008D4
:1000C0001B01000800000000000000001B010008E8
:1000D00000000000ED0800082D0A000800000000E4
:1000E0001B0100081B0100081B010008DFF80CD0F1
:1000F00000F02AF800480047B512000890060020DA
:100100000648804706480047FEE7FEE7FEE7FEE7B1
:10011000FEE7FEE7FEE7FEE7FEE7FEE78D080008E4
:10012000ED000008D2B201E000F8012B491EFBD21D
:1001300070470022F6E710B513460A4604461946F2
:10014000FFF7F0FF204610BD064C074D06E0E068C3
:1001500040F0010394E8070098471034AC42F6D30E
:10016000FFF7C8FF601F0008801F000870B58C18DB
:1001700010F8015B15F0070301D110F8013B2A11BB
:1001800006D110F8012B03E010F8016B01F8016BA8
:100190005B1EF9D12B0705D40023521E0DD401F8A4
:1001A000013BFAE710F8013BCB1A921C03E013F86D
:1001B000015B01F8015B521EF9D5A142D8D30020A2
:1001C00070BD000010B59048006801287ED1002065
:1001D0008D49086008228D498D4801F087F88D49C6
:1001E00008700846007808B900F082FE08228A49A3
:1001F000874801F07BF8874908700846007808B9FD
:1002000000F010FF08228549814801F06FF881490C
:1002100008700846007808B900F04AFF08228049B3
:100220007B4801F063F87B4908700846007808B9FC
:1002300000F04CFF08227B49754801F057F87549DA
:1002400008700846007808B900F04EFF0822764989
:100250006F4801F04BF86F4908700846007808B9FC
:1002600000F050FF08227149694801F03FF86949E0
:1002700008700846007808B900F052FF08226C495F
:10028000634801F033F8634908700846007808B9FC
:1002900000F054FF082267495D4801F027F85D49E6
:1002A00008700846007808B900F056FF0822624935
:1002B000574801F01BF8574908700846007808B9FC
:1002C00000F024FE08225D49514800E09BE001F067
:1002D0000DF8504908700846007808B900F024FE6F
:1002E000082257494A4801F001F84A49087008466F
:1002F000007808B900F026FE08225249444800F070
:10030000F5FF444908700846007808B900F028FE57
:1003100008224D493E4800F0E9FF3E490870084672
:10032000007808B900F02AFE08224849384800F051
:10033000DDFF384908700846007808B900F02CFE47
:1003400008224349324800F0D1FF3249087008467C
:10035000007808B900F02EFE08223E492C4800F033
:10036000C5FF2C4908700846007808B900F030FE37
:1003700008223949264800F0B9FF26490870084686
:10038000007808B900F032FE08223449204800F015
:10039000ADFF204908700846007808B900F034FE27
:1003A00008222F491A4800F0A1FF1A490870084690
:1003B000007808B900F044FE08222A49144800F0E9
:1003C00095FF144908700846007808B900F046FE09
:1003D000082225490E4800F089FF0E49087008469A
:1003E000007808B900F048FE08222049084800F0CB
:1003F0007DFF084908700846007808B900F04AFEF9
:1004000000201B49088010BD180000202C0000208F
:100410006C0200201C0000203C0000204C0000204A
:100420005C0000206C0000207C0000208C0000207C
:100430009C000020AC000020BC000020CC0000206C
:10044000DC000020EC000020FC0000200C0100205B
:100450001C0100202C0100203C0100204C01002048
:100460005C0100206C0100207C0100208C01002038
:100470002200002000BFFEE770472DE9F041024650
:1004800000250026002000230024002791F803C047
:100490000CF00F0591F803C00CF0100CBCF1000F2C
:1004A00003D091F802C04CEA050591F800C0BCF1F8
:1004B000000F31D0146800202BE04FF0010C0CFA33
:1004C00000F3B1F800C00CEA03069E4220D183007D
:1004D0004FF00F0C0CFA03F7BC4305FA03FC4CEA8F
:1004E000040491F803C0BCF1280F06D14FF0010CB1
:1004F0000CFA00FCC2F814C00AE091F803C0BCF189
:10050000480F05D14FF0010C0CFA00FCC2F810C0E6
:10051000401C0828D1D31460B1F800C0BCF1FF0F13
:1005200034DD546800202EE000F1080C4FF0010883
:1005300008FA0CF3B1F800C00CEA03069E4221D180
:1005400083004FF00F0C0CFA03F7BC4305FA03FCD1
:100550004CEA040491F803C0BCF1280F05D100F166
:10056000080C08FA0CF8C2F8148091F803C0BCF12A
:10057000480F07D100F1080C4FF0010808FA0CF8F9
:10058000C2F81080401C0828CED35460BDE8F0812A
:1005900000BFFEE700BFFEE77047000070B5002116
:1005A00000230F22C47804B3154C246804F4E064DB
:1005B000C4F5E064210AC1F10403CA40447804FA96
:1005C00003F184781440214309010E4C0678A155AB
:1005D000047804F01F050124AC4005786D11AD00CE
:1005E00005F1E025C5F8004109E0047804F01F0595
:1005F0000124AC40044D0678761145F8264070BDC4
:100600000CED00E000E400E080E100E0024901437D
:10061000024A1160704700000000FA050CED00E08E
:100620007047000029B1064AD2690243044BDA61DF
:1006300004E0034AD2698243014BDA61704700004B
:100640000010024029B1064A92690243044B9A61A4
:1006500004E0034A92698243014B9A6170470000AB
:100660000010024030B500210022002400232D4D4F
:100670006D6805F00C0121B1042905D0082923D1AA
:1006800005E0294D056022E0274D05601FE0254D5E
:100690006D6805F47012234D6D6805F480340225F1
:1006A00005EB92421CB9214D554305600BE01D4DF1
:1006B0006D6805F400351DB11C4D5543056002E021
:1006C000194D5543056002E0174D056000BF00BF9E
:1006D000144D6D6805F0F0010909154D6B5C056856
:1006E000DD4045600F4D6D6805F4E061090A104D6D
:1006F0006B5C4568DD4085600A4D6D6805F46051AE
:10070000C90A0B4D6B5C4568DD40C560054D6D68E1
:1007100005F44041890B074D6B5CC568B5FBF3F5EB
:10072000056130BD0010024000127A0000093D0052
:100730000000002010000020704710B500F002F803
:1007400010BD00000CB500200190009033480068F7
:1007500040F480303149086000BF3048006800F440
:10076000003000900198401C0190009818B9019841
:10077000B0F5A06FF1D12948006800F4003010B145
:100780000120009001E0002000900098012843D152
:100790002348006840F010002149086008460068BE
:1007A00020F0030008600846006840F0020008607E
:1007B0001A48406819494860084640684860084639
:1007C000406840F4806048600846406820F47C102F
:1007D00048600846406840F4E810486008460068F1
:1007E00040F08070086000BF0C48006800F00070A6
:1007F0000028F9D00948406820F003000749486004
:100800000846406840F00200486000BF0348406866
:1008100000F00C000828F9D10CBD000000100240C7
:1008200000200240042808D14FF0E021096941F07E
:1008300004014FF0E022116107E04FF0E021096967
:1008400021F004014FF0E022116170477047000071
:1008500010B504466FF00400FFF7E4FFE11704EB66
:100860005171C1F3C701074A11701046007800EBBF
:100870004001C1EBC0104FF6FF7101EAC000024910
:10088000088010BD140000201600002010B5134889
:10089000006840F0010011490860084640681049AE
:1008A00008400E494860084600680E4908400B4958
:1008B00008600846006820F4802008600846406808
:1008C00020F4FE0048604FF41F008860FFF735FFFA
:1008D0004FF000600449086010BD000000100240A5
:1008E0000000FFF8FFFFF6FE08ED00E010B540F253
:1008F00025511D4800F085F910B31B4800F03CFA63
:10090000C4B21A48008800F40040C8B917480088EB
:1009100000F4804060B10A2C03D000201349088005
:1009200020E01248008840F400401049088019E097
:100930000D2C06D10D48008840F480400B490880FA
:1009400010E00A480088C0F30D0009490C5407481C
:100950000088401C0549088008460088C72801DD3A
:100960000020088010BD0000003801401E0000205B
:10097000A401002010B586B0044601210420FFF731
:1009800061FE01218803FFF75DFE01210846FFF7A4
:1009900059FE4FF40070ADF8140003208DF81600D6
:1009A00018208DF8170005A91E48FFF766FD4FF4C3
:1009B0008060ADF8140004208DF8170005A91948CF
:1009C000FFF75BFD01940020ADF80800ADF80A00C8
:1009D000ADF80C00ADF810000C20ADF80E0001A928
:1009E000114800F05DF901210F4800F0F1F84021B5
:1009F0000D4800F0D5F8012240F225510A4800F0D8
:100A00002AF925208DF8000001208DF8010003202F
:100A10008DF8020001208DF803006846FFF7BEFD47
:100A200006B010BD000801400038014010B540F28A
:100A30002551274800F0E5F8012833D1244800F07B
:100A40009BF9C4B22348007880B9012C24D101203D
:100A50002049087000202049087008460178007875
:100A6000401C1D4A10701D48445415E01948007878
:100A7000012811D1184801780078401C164A1070DE
:100A800016484454104600780E2805DB0020114912
:100A9000087001201249087040F225510C4800F0FE
:100AA00088F800BF40F22441094800F0AAF8012864
:100AB00007D001200B49086040F22441044800F0AF
:100AC00078F8034800880248001D008810BD000027
:100AD000004400409C0100209D0100206C02002089
:100AE000200000201800002010B586B00446012127
:100AF0000420FFF7A7FD01214804FFF793FD042020
:100B0000ADF8140003208DF8160018208DF817009A
:100B100005A92148FFF7B1FC0820ADF81400042016
:100B20008DF8170005A91C48FFF7A7FC01940020C9
:100B3000ADF80800ADF80A00ADF80C00ADF81000F3
:100B40000C20ADF80E0001A9144800F0A9F801210D
:100B5000124800F03DF84021104800F021F8012231
:100B600040F225510D4800F076F8012240F2244170
:100B70000A4800F070F826208DF8000001208DF85A
:100B8000010000208DF8020001208DF80300684666
:100B9000FFF704FD06B010BD00080140004400400E
:100BA00001F40072B2F5007F00D100BFCA43028099
:100BB000704710B50022002340F66A14A14200D10C
:100BC00000BF0A1201249440A3B2DC43048010BD8C
:100BD00021B1828942F40052828104E082894DF67B
:100BE000FF731A408281704702460020B1F5007FF2
:100BF00000D100BF13880B400BB1012000E00020A2
:100C0000704770B50246002400230025002040F6FE
:100C10006A16B14200D100BFC1F3421501F01F03B3
:100C2000012606FA03F3012D02D19689334006E02E
:100C3000022D02D1168A334001E0968A33400C120D
:100C4000012606FA04F41688344013B10CB10120D1
:100C500000E0002070BDF0B503460024002600250A
:100C6000002040F66A17B94200D100BF1846C1F310
:100C7000421401F01F06012707FA06F5012C01D1E5
:100C80000C3004E0022C01D1103000E014301AB115
:100C900007682F43076002E00768AF430760F0BDB5
:100CA0002DE9F04786B005460E460024A24600BF57
:100CB000A1460027B08900B100BF2F462C8A4CF610
:100CC000FF700440F08804432C82AC894EF6F31088
:100CD0000440B08831890843718908430443AC81DA
:100CE000AC8A4FF6FF400440B0890443AC8201A8AF
:100CF000FFF7B8FC1F48874202D1DDF810A001E0E1
:100D0000DDF80CA0A88900F4004040B10AEBCA004D
:100D100000EB0A1031684900B0FBF1F807E00AEB7C
:100D2000CA0000EB0A1031688900B0FBF1F86420BA
:100D3000B8FBF0F004012009642101FB1089A889A7
:100D400000F4004040B1322000EBC900B0FBF1F0EC
:100D500000F00700044308E0322000EB0910642192
:100D6000B0FBF1F000F00F0004432C8106B0BDE8A9
:100D7000F08700000038014001468888C0F3080071
:100D80007047C1F308028280704700BFFEE7000091
:100D90000FB4054B10B503A9044A029800F017F8E8
:100DA00010BC5DF814FB000091120008A0010020A7
:100DB00002E008C8121F08C1002AFAD17047704724
:100DC000002001E001C1121F002AFBD170472DE96C
:100DD000F84F9946924688460546002706E02528A2
:100DE0000AD051464A4690476D1C7F1C287800283F
:100DF000F5D13846BDE8F88F002315F8011F1846D5
:100E00002E2915D115F8011F04232A290DD06FF0C2
:100E10002F022978A1F13004092C09D800EB8000B9
:100E200002EB400008446D1CF3E758F8040B6D1CFE
:100E30002A78002ADDD0632A07D0732A0FD0104603
:100E400051464A4690477F1C2AE018F8042B8DF83B
:100E5000002000218DF801106E46012103E058F8B2
:100E6000046B4FF0FF315A074FF0000401D409E042
:100E7000641C84420BDA8C42FADB325D002AF7D123
:100E800005E0641C8C42FCDB305D0028F9D127446E
:100E900004E016F8010B51464A469047641EF8D20A
:100EA0006D1CA3E70146114A12884A434FF0E02324
:100EB0005A6100229A611A46126942F001021A61CF
:100EC00000BF4FF0E022106900F001021AB100F4F7
:100ED0008032002AF5D04FF0E022126922F00102A0
:100EE0004FF0E0231A6100229A617047160000203B
:100EF00010B50448FFF74CFFC8210348FFF719F964
:100F000010BD000044150008A401002010B50448DD
:100F1000FFF73EFFC8210348FFF70BF910BD0000A3
:100F20005C140008A401002010B50448FFF730FF4E
:100F3000C8210348FFF7FDF810BD0000B8150008F0
:100F4000A401002010B50448FFF722FFC821034880
:100F5000FFF7EFF810BD000014170008A4010020EF
:100F600010B50448FFF714FFC8210348FFF7E1F864
:100F700010BD000070180008A401002010B504483E
:100F8000FFF706FFC8210348FFF7D3F810BD0000A4
:100F9000CC190008A401002010B50448FFF7F8FEA2
:100FA000C8210348FFF7C5F810BD0000B41A0008B7
:100FB000A401002010B50448FFF7EAFEC821034849
:100FC000FFF7B7F810BD00009C1B0008A40100202B
:100FD00010B50448FFF7DCFEC8210348FFF7A9F865
:100FE00010BD0000841C0008A401002010B50448B6
:100FF000FFF7CEFEC8210348FFF79BF810BD0000A5
:101000006C1D0008A401002010B50448FFF7C0FEC5
:10101000C8210348FFF78DF810BD0000541E0008DA
:10102000A401002010B50448FFF7B2FEC821034810
:10103000FFF77FF810BD0000A0160008A4010020F3
:1010400010B50448FFF7A4FEC8210348FFF771F864
:1010500010BD0000D0140008A401002010B5044801
:10106000FFF796FEC8210348FFF763F810BD0000A4
:101070002C160008A401002010B50448FFF788FED4
:10108000C8210348FFF755F810BD00008817000875
:10109000A401002010B50448FFF77AFEC8210348D8
:1010A000FFF747F810BD0000E4180008A401002075
:1010B00010B50448FFF76CFEC8210348FFF739F864
:1010C00010BD0000FC170008A401002010B5044862
:1010D000FFF75EFEC8210348FFF72BF810BD0000A4
:1010E00058190008A401002010B50448FFF750FE6D
:1010F000C8210348FFF71DF810BD0000401A000882
:10110000A401002010B50448FFF742FEC82103489F
:10111000FFF70FF810BD0000281B0008A4010020F5
:1011200010B50448FFF734FEC8210348FFF701F863
:1011300010BD0000101C0008A401002010B50448D8
:10114000FFF726FEC8210348FEF7F3FF10BD00009D
:10115000F81C0008A401002010B50448FFF718FE91
:10116000C8210348FEF7E5FF10BD0000E01D0008A0
:10117000A401002010B523A0FFF70AFE4FF4FA6087
:10118000FFF790FE21A0FFF703FE4FF4FA60FFF790
:1011900089FE21A0FFF7FCFD4FF4FA60FFF782FE05
:1011A00021A0FFF7F5FD4FF47A70FFF77BFE22A038
:1011B000FFF7EEFD4FF4FA60FFF774FE28A0FFF78B
:1011C000E7FD4FF47A70FFF76DFE2D48FFF7E0FD65
:1011D0004FF47A70FFF766FE2A48FFF7D9FD4FF407
:1011E0007A70FFF75FFE2848FFF7D2FD4FF47A7060
:1011F000FFF758FE2548FFF7CBFD4FF47A70FFF755
:1012000051FE10BD41540D0A0000000041542B5204
:1012100053540D0A0000000041542B524553544FC3
:1012200052450D0A0000000041542B43574D4F44D6
:10123000453D330D0A00000041542B434950534EA5
:1012400054504346473D312C382C226E74706C2E1E
:10125000616C6979756E2E636F6D220D0A00000056
:1012600041542B43574A41503D2274657374222CDC
:10127000223132333435363738220D0A000000006F
:1012800070130008F0130008181F0008C81E00089B
:1012900070B504460D46E1B20548FFF772FD00BF88
:1012A00080210348FFF7A0FC0028F9D0204670BD3C
:1012B000003801404820FFF7CBFA4FF4A060FFF759
:1012C000A5F94FF4E130FFF755FB4FF41650FFF747
:1012D0000BFCFFF74FFF08E0012000F01FF8FEF7BE
:1012E00071FF4FF41670FFF7DDFDF5E770B50346AB
:1012F0000C4615461946224609E008781678B04291
:1013000003D008781678801B70BD491C521C281E1B
:10131000A5F10105F1D100BFF6E7000070B5054663
:10132000012D0ED1002510490870022048700020C0
:101330008870C87008711D204871B820887103201A
:10134000C87100240CE000BF40210848FFF74CFCA6
:101350000028F9D00448015D0448FFF712FD641C21
:10136000082CF0DB70BD00007C020020004400402F
:1013700041542B4D515454555345524346473D30EB
:101380002C312C224E554C4C222C224D61696E433F
:101390006F6E74726F6C266B3135337A7579414D8F
:1013A0004836222C22613231616334336131333467
:1013B00066353838393635623232336466623336F0
:1013C00065643037323038313664613230366136F8
:1013D0006134316266633362333039373435626386
:1013E0006631373433222C302C302C22220D0A0067
:1013F00041542B4D515454434C49454E5449443D5E
:10140000302C226B3135337A7579414D48362E4D6B
:1014100061696E436F6E74726F6C7C736563757215
:10142000656D6F64653D325C2C7369676E6D6574C4
:10143000686F643D686D61637368613235365C2C3A
:1014400074696D657374616D703D31373230333559
:10145000313233363631387C220D0A0041542B4D5F
:101460005154545055423D302C222F7379732F6BB9
:101470003135337A7579414D48362F4D61696E4368
:101480006F6E74726F6C2F7468696E672F65766506
:101490006E742F70726F70657274792F706F7374C1
:1014A000222C227B5C22706172616D735C223A7B1C
:1014B0005C227472696767657265645F69645C2247
:1014C0003A3131307D7D222C312C300D0A00000064
:1014D00041542B4D5154545055423D302C222F73C2
:1014E00079732F6B3135337A7579414D48362F4DED
:1014F00061696E436F6E74726F6C2F7468696E678A
:101500002F6576656E742F70726F70657274792FA7
:10151000706F7374222C227B5C22706172616D7318
:101520005C223A7B5C227472696767657265645FEE
:1015300069645C223A3132307D7D222C312C300DB1
:101540000A00000041542B4D5154545055423D3037
:101550002C222F7379732F6B3135337A7579414D86
:1015600048362F4D61696E436F6E74726F6C2F74C5
:1015700068696E672F6576656E742F70726F70651F
:101580007274792F706F7374222C227B5C227061CD
:1015900072616D735C223A7B5C2274726967676565
:1015A0007265645F69645C223A3130317D7D222C42
:1015B000312C300D0A00000041542B4D5154545031
:1015C00055423D302C222F7379732F6B3135337A8E
:1015D0007579414D48362F4D61696E436F6E747257
:1015E0006F6C2F7468696E672F6576656E742F70E7
:1015F000726F70657274792F706F7374222C227BF6
:101600005C22706172616D735C223A7B5C22747241
:10161000696767657265645F69645C223A3131317C
:101620007D7D222C312C300D0A00000041542B4DC1
:101630005154545055423D302C222F7379732F6BE7
:101640003135337A7579414D48362F4D61696E4396
:101650006F6E74726F6C2F7468696E672F65766534
:101660006E742F70726F70657274792F706F7374EF
:10167000222C227B5C22706172616D735C223A7B4A
:101680005C227472696767657265645F69645C2275
:101690003A3132317D7D222C312C300D0A00000090
:1016A00041542B4D5154545055423D302C222F73F0
:1016B00079732F6B3135337A7579414D48362F4D1B
:1016C00061696E436F6E74726F6C2F7468696E67B8
:1016D0002F6576656E742F70726F70657274792FD6
:1016E000706F7374222C227B5C22706172616D7347
:1016F0005C223A7B5C227472696767657265645F1D
:1017000069645C223A3130327D7D222C312C300DDF
:101710000A00000041542B4D5154545055423D3065
:101720002C222F7379732F6B3135337A7579414DB4
:1017300048362F4D61696E436F6E74726F6C2F74F3
:1017400068696E672F6576656E742F70726F70654D
:101750007274792F706F7374222C227B5C227061FB
:1017600072616D735C223A7B5C2274726967676593
:101770007265645F69645C223A3131327D7D222C6E
:10178000312C300D0A00000041542B4D515454505F
:1017900055423D302C222F7379732F6B3135337ABC
:1017A0007579414D48362F4D61696E436F6E747285
:1017B0006F6C2F7468696E672F6576656E742F7015
:1017C000726F70657274792F706F7374222C227B24
:1017D0005C22706172616D735C223A7B5C22747270
:1017E000696767657265645F69645C223A313232A9
:1017F0007D7D222C312C300D0A00000041542B4DF0
:101800005154545055423D302C222F7379732F6B15
:101810003135337A7579414D48362F4D61696E43C4
:101820006F6E74726F6C2F7468696E672F65766562
:101830006E742F70726F70657274792F706F73741D
:10184000222C227B5C22706172616D735C223A7B78
:101850005C227472696767657265645F69645C22A3
:101860003A3130337D7D222C312C300D0A000000BE
:1018700041542B4D5154545055423D302C222F731E
:1018800079732F6B3135337A7579414D48362F4D49
:1018900061696E436F6E74726F6C2F7468696E67E6
:1018A0002F6576656E742F70726F70657274792F04
:1018B000706F7374222C227B5C22706172616D7375
:1018C0005C223A7B5C227472696767657265645F4B
:1018D00069645C223A3131337D7D222C312C300D0C
:1018E0000A00000041542B4D5154545055423D3094
:1018F0002C222F7379732F6B3135337A7579414DE3
:1019000048362F4D61696E436F6E74726F6C2F7421
:1019100068696E672F6576656E742F70726F70657B
:101920007274792F706F7374222C227B5C22706129
:1019300072616D735C223A7B5C22747269676765C1
:101940007265645F69645C223A3132337D7D222C9A
:10195000312C300D0A00000041542B4D515454508D
:1019600055423D302C222F7379732F6B3135337AEA
:101970007579414D48362F4D61696E436F6E7472B3
:101980006F6C2F7468696E672F6576656E742F7043
:10199000726F70657274792F706F7374222C227B52
:1019A0005C22706172616D735C223A7B5C2274729E
:1019B000696767657265645F69645C223A313034D7
:1019C0007D7D222C312C300D0A00000041542B4D1E
:1019D0005154545055423D302C222F7379732F6B44
:1019E0003135337A7579414D48362F4D61696E43F3
:1019F0006F6E74726F6C2F7468696E672F65766591
:101A00006E742F70726F70657274792F706F73744B
:101A1000222C227B5C22706172616D735C223A7BA6
:101A20005C227472696767657265645F69645C22D1
:101A30003A3131347D7D222C312C300D0A000000EA
:101A400041542B4D5154545055423D302C222F734C
:101A500079732F6B3135337A7579414D48362F4D77
:101A600061696E436F6E74726F6C2F7468696E6714
:101A70002F6576656E742F70726F70657274792F32
:101A8000706F7374222C227B5C22706172616D73A3
:101A90005C223A7B5C227472696767657265645F79
:101AA00069645C223A3130357D7D222C312C300D39
:101AB0000A00000041542B4D5154545055423D30C2
:101AC0002C222F7379732F6B3135337A7579414D11
:101AD00048362F4D61696E436F6E74726F6C2F7450
:101AE00068696E672F6576656E742F70726F7065AA
:101AF0007274792F706F7374222C227B5C22706158
:101B000072616D735C223A7B5C22747269676765EF
:101B10007265645F69645C223A3131357D7D222CC7
:101B2000312C300D0A00000041542B4D51545450BB
:101B300055423D302C222F7379732F6B3135337A18
:101B40007579414D48362F4D61696E436F6E7472E1
:101B50006F6C2F7468696E672F6576656E742F7071
:101B6000726F70657274792F706F7374222C227B80
:101B70005C22706172616D735C223A7B5C227472CC
:101B8000696767657265645F69645C223A31303603
:101B90007D7D222C312C300D0A00000041542B4D4C
:101BA0005154545055423D302C222F7379732F6B72
:101BB0003135337A7579414D48362F4D61696E4321
:101BC0006F6E74726F6C2F7468696E672F657665BF
:101BD0006E742F70726F70657274792F706F73747A
:101BE000222C227B5C22706172616D735C223A7BD5
:101BF0005C227472696767657265645F69645C2200
:101C00003A3131367D7D222C312C300D0A00000016
:101C100041542B4D5154545055423D302C222F737A
:101C200079732F6B3135337A7579414D48362F4DA5
:101C300061696E436F6E74726F6C2F7468696E6742
:101C40002F6576656E742F70726F70657274792F60
:101C5000706F7374222C227B5C22706172616D73D1
:101C60005C223A7B5C227472696767657265645FA7
:101C700069645C223A3130377D7D222C312C300D65
:101C80000A00000041542B4D5154545055423D30F0
:101C90002C222F7379732F6B3135337A7579414D3F
:101CA00048362F4D61696E436F6E74726F6C2F747E
:101CB00068696E672F6576656E742F70726F7065D8
:101CC0007274792F706F7374222C227B5C22706186
:101CD00072616D735C223A7B5C227472696767651E
:101CE0007265645F69645C223A3131377D7D222CF4
:101CF000312C300D0A00000041542B4D51545450EA
:101D000055423D302C222F7379732F6B3135337A46
:101D10007579414D48362F4D61696E436F6E74720F
:101D20006F6C2F7468696E672F6576656E742F709F
:101D3000726F70657274792F706F7374222C227BAE
:101D40005C22706172616D735C223A7B5C227472FA
:101D5000696767657265645F69645C223A3130382F
:101D60007D7D222C312C300D0A00000041542B4D7A
:101D70005154545055423D302C222F7379732F6BA0
:101D80003135337A7579414D48362F4D61696E434F
:101D90006F6E74726F6C2F7468696E672F657665ED
:101DA0006E742F70726F70657274792F706F7374A8
:101DB000222C227B5C22706172616D735C223A7B03
:101DC0005C227472696767657265645F69645C222E
:101DD0003A3131387D7D222C312C300D0A00000043
:101DE00041542B4D5154545055423D302C222F73A9
:101DF00079732F6B3135337A7579414D48362F4DD4
:101E000061696E436F6E74726F6C2F7468696E6770
:101E10002F6576656E742F70726F70657274792F8E
:101E2000706F7374222C227B5C22706172616D73FF
:101E30005C223A7B5C227472696767657265645FD5
:101E400069645C223A3130397D7D222C312C300D91
:101E50000A00000041542B4D5154545055423D301E
:101E60002C222F7379732F6B3135337A7579414D6D
:101E700048362F4D61696E436F6E74726F6C2F74AC
:101E800068696E672F6576656E742F70726F706506
:101E90007274792F706F7374222C227B5C227061B4
:101EA00072616D735C223A7B5C227472696767654C
:101EB0007265645F69645C223A3131397D7D222C20
:101EC000312C300D0A00000041542B4D5154545315
:101ED00055423D302C222F7379732F6B3135337A75
:101EE0007579414D48362F4D61696E436F6E74723E
:101EF0006F6C2F7468696E672F6576656E742F70CE
:101F0000726F70657274792F706F73745F72657021
:101F10006C79222C310D0A0041542B4D51545443FD
:101F20004F4E4E3D302C22696F742D30367A303052
:101F300069327A767A65743769702E6D7174742E91
:101F4000696F746875622E616C6979756E63732E42
:101F5000636F6D222C313838332C310D0A000000AC
:101F6000801F000800000020A40100006C01000890
:101F700020200008A4010020EC040000C00D00088F
:101F8000412D010203040400091006070809020498
:101F9000060833010230081DB803010204017BFA70
:101FA0001E182A041A8BFA5A102A04108AD21029F1
:101FB0004C8BF9821032108BFF221032209AF010D5
:101FC00032409AEE1032809AD210111981AAAA10CA
:101FD0001981AA5A1019819BBA231019812A7A658E
:101FE000691019819BFA2710191C9BFA2810198176
:101FF0009BFA361019819BFA0A101981ABFA7210FC
:1020000012029AFAE0211204AAF9901981BAFC107E
:102010001210BAF6101220BAE21012406ACA1081E9
:04000005080000ED02
:00000001FF
